:10009000AE82AF83EE4F60147CE67D001CBCFF0196
:1000A0001DEC4D70F71EBEFF011F80E822AF82C21B
:0F00B000AFBF0104D2888002C288D2A8D2AF228B
:03008200750800FE
:1000BF007590FF785A7600785976007858760078E0
:1000CF00577600785D7600785B7600785C76001264
:1000DF00073A785E7601227F0074FFB59002805058
:1000EF0090000AC007120090D00774FFB5900280ED
:1000FF003FE59020E0027F01E59020E103430702F6
:10010F00E59020E203430704E59020E3034307084B
:10011F00E59020E403430710E59020E50343072013
:10012F00E59020E603430740E59020E7034307806F
:10013F008F822274FFB59002804590000A120090C2
:10014F0074FFB590028038AF907D007E008DF00572
:10015F00F0EF8002C313D5F0FB20E013E508FB336B
:10016F0095E0FCEDB50306EEB5040280028D080D97
:10017F00BD00010EC3ED9408EE6480948040CE85DF
:10018F00088222AF82BF0800400490FFFF22E51CC7
:10019F0060158F068EF005F07401800225E0D5F012
:1001AF00FBF4FE52A080108FF005F0740180022541
:1001BF00E0D5F0FBFF42A090000022AF82BF080005
:1001CF00400475820022E5A08FF005F08002C31372
:0E01DF00D5F0FB30E00475820022758201220B
:0600000002002902039E2C
:03000B00020439B3
:0100130032BA
:01001B0032B2
:030023000204CE06
:05008500E4F512F51383
:03008D0002002648
:030026000201EDE7
:1001ED001200BF12074F1204F1AE82AF83901010B0
:1001FD0075F080C007C006120777D006D0078E8233
:10020D008F831207A290102675F0801207771209BE
:10021D002012094175440020B25F7582F41204D793
:10022D001204E5E582FF30E707C00712095CD0072D
:10023D00EF30E607C007120965D007EF30E007C0C1
:10024D0007120972D007EF30E107C007120DEDD08C
:10025D0007EF30E207C007120DFFD007EF30E307BD
:10026D00C007120E2ED007EF30E407C007120E4163
:10027D00D007EF30E503120E4AE544609AE543706E
:10028D0096785EF6785CE67005785BE660031202A0
:10029D00A5785E7601020224750900750A00750BBA
:1002AD0000750C00750D00750E00750F00751000B2
:1002BD007511007F03785AE630E06D750901785AA3
:1002CD00E630E1067402450AF50A785AE630E20690
:1002DD007404450AF50A785AE630E305750C597F22
:1002ED0004785AE630E407EF2409F8765A0F785A65
:1002FD00E630E507EF2409F8765B0F785AE630E62D
:10030D0007EF2409F876390F785AE630E706EF241F
:10031D0009F87653751909751A00751B407518097A
:10032D0075820312063F805D750902785BE630E148
:10033D0003750BF6785BE630E203750B0A785BE626
:10034D0030E303750CF6785BE630E403750C0A7840
:10035D005AE630E5067401450AF50A785AE630E6A4
:10036D00067404450AF50A785AE630E70674024524
:10037D000AF50A751909751A00751B40751805756A
:10038D00820312063F754301785C7600785B760038
:10039D0022C020C0E0C0F0C082C083C007C006C02C
:1003AD0005C004C003C002C001C000C0D075D0009C
:1003BD007582F41204D71204E5E582FF30E707C019
:1003CD000712095CD007EF30E607C007120965D0A8
:1003DD0007EF30E007C007120972D007EF30E107D1
:1003ED00C007120DEDD007EF30E207C007120DFF69
:1003FD00D007EF30E307C007120E2ED007EF30E421
:10040D0007C007120E41D007EF30E503120E4AD098
:10041D00D0D000D001D002D003D004D005D006D06A
:10042D0007D083D082D0F0D0E0D02032C0E0C0F031
:10043D00C007C001C000C0D075D000758CDC758AB6
:10044D00000512E4B512020513C374C89512E495A4
:10045D00135005E4F512F513785EE670028055E54C
:10046D0090F4FF7857A6077857795886F0E7B5F0DE
:10047D0002800C7859760078577958E6F7803578F0
:10048D0059E6785904F67859B6010040277859761F
:10049D00017858795AE6F7785DE6F4FF785AE65F09
:1004AD00785B46F6785D795AE756785C46F6785A69
:1004BD00795DE6F7D0D0D000D001D007D0F0D0E0F4
:0A04CD0032109805C2997521003223
:10101000726561642070646975736231322069643D
:081020002069733A20000A0068
:1004D700AF82D2B5C2B68F80D2B67580FF22C2B5C1
:1004E700C2B7858082D2B7D2B7227582FD1204D7F0
:1004F7001204E5AF827E00C007C0061204E5AD8294
:10050700D006D0078D04E44FF582EC4EF58322AF79
:1005170082C2B5C2B68F80D2B67580FF22AF827411
:10052700402FF5821204D70204E50204D7AF82C038
:10053700071205317582F01204D71204E51204E59B
:10054700AE82D007C3E5149E5002AE1490102875F2
:10055700F080C007C006120777D006D0077D007568
:100567001C028D1D8F828D83C006120FD41207E9DE
:1005770090103775F080120777D0068E057F008DB3
:10058700828F83C0061207E990104075F08012072A
:1005970077D0067F00C3EF9E5065C2B7EF2515FBE6
:1005A700E43516FCAD178B828C838DF0E580120F36
:1005B7001AD2B78B828C838DF0120F82F582C00717
:1005C700C00612086CD006D0078F047D008C828D80
:1005D70083A3751C108D1DC007C006120F9EE582F0
:1005E7008583F0D006D00745F0701190104875F05C
:1005F70080C007C006120777D006D0070F8096EE97
:10060700540F600D90104875F080C006120777D020
:10061700068E82227582F20204D775820112053195
:100627007582F11204D77582001205317582F102C5
:1006370004D77582FA0204D7AF82C0071205317555
:1006470082F01204D77582001205168518821205EA
:100657001690104A75F080120777D0077E00751C38
:10066700028E1D8F828E83120FD41207E9901037E6
:1006770075F080120777AE187F008E828F8312077E
:10068700E990104075F0801207777F00C3EF951847
:100697005059C2B6EF2519FCE4351AFDAE1B8C8202
:1006A7008D838EF0120F82F580D2B68C828D838E69
:1006B700F0120F82F582C00712086CD0078F057EF3
:1006C700008D828E83A3751C108E1DC007120F9E8E
:1006D700E5828583F0D00745F0700D90104875F0DE
:1006E70080C007120777D0070F80A1E518540F6065
:1006F7000990104875F0801207777580FF12063948
:1007070085188222AF827582D0C0071204D7D0071E
:1007170074804FF582020516AF827582D8C0071222
:1007270004D7D007EF6006758201020516758200AF
:03073700020516A2
:101028007265616420656E64706F696E742000205B
:1010380062756666657220002062797465730A00BD
:101048000A00777269746520656E64706F696E74E2
:02105800200076
:10073A00758CDC758A005389F0438901D2AFD2A93E
:05074A00C28DD28C22DB
:03008A00752100DD
:10074F00C2AF5389F0438920759850758DF4758B1E
:10075F00F4438780D2ACD28ED29CD2AF22858299BD
:10076F00752101E52170FC22AD82AE83AFF08D8241
:10077F008E838FF0120F82FC60188C82C007C00628
:10078F00C00512076CD005D006D0070DBD00DF0ED7
:10079F0080DC22AE82AF83752800752230752378F6
:1007AF007D05ED2422F98E0353030F7C00EB245AB1
:1007BF00F582EC3410F583E493F7EFC4CEC4540FF5
:1007CF006ECE540FCE6ECEFF1DC3ED64809482505B
:1007DF00D190002275F040020777AE82AF83752E5D
:1007EF00007D09ED2429F9751C0A751D008E828F75
:1007FF0083C007C006C005C001120F35AB82D00100
:10080F00D005D006D00774302BF7751C0A751D0064
:10081F008E828F83C005120ED2AE82AF83D0051D9C
:10082F00ED30E7BF7F00EF2429F98706BE30090FAF
:10083F00C3EF6480948940EEC3EF6480948A5010B4
:10084F00EF2429F98782C00712076CD0070F80E8C1
:10085F0022AF827521018F99E52170FC22AF82753D
:10086F008230C007120860758278120860D007EFD7
:10087F00C4540F90105A93F582C007120860D00726
:10088F0053070F7E00EF245AF582EE3410F583E400
:10089F0093F582120860758220020860AD82AE83E4
:1008AF00AFF07B007C00C3EB9533EC95345059EBE4
:1008BF002DF8EC3EF98F02888289838AF0120F821D
:1008CF00F582C007C006C005C004C00312086CD073
:1008DF0003D004D005D006D007EB4C6024EB540FA7
:1008EF006002801D90106A75F080C007C006C005B9
:1008FF00C004C003120777D003D004D005D006D0B0
:10090F00070BBB00A10C809E90106A75F080020748
:01091F007760
:10105A0030313233343536373839414243444546E4
:02106A000A007A
:100920009011CE75F0801207777582F31204D77597
:1009300082061205167582471205169003E802001A
:10094000909011DE75F0801207777582F31204D74C
:100950007582161205167582470205169011EB7501
:10096000F08002077790120175F0801207777543C7
:10097000002290121575F080120777751C00751D06
:1009800010751E0090004575F040120EFB75820038
:10099000120524E58220E503020DC975154575167B
:1009A0000075174075141075820012053412062167
:1009B00012061B854535854636AF487E00AC477D1F
:1009C00000EE4CF537EF4DF538AF4A7E00AC497D6F
:1009D00000EE4CF539EF4DF53AAF4C7E00AC4B7D57
:1009E00000EE4CF53BEF4DF53CAE355306807F00F5
:1009F000BE8005BF00028003020CBCE535C4035471
:100A000007FF5307037E00BF0005BE00028015BF2D
:100A10000106BE0003020CA1BF0206BE0003020CC9
:100A2000AA020CB390122675F080120777E4B5364F
:100A300003020C867406B5360280237408B53602AC
:100A40008013740AB53603020C7D740CB5360302AC
:100A50000C8F020C9890124075F08002077790126C
:100A60005375F080120777AF38BF01028014BF02C0
:100A7000028061BF0303020B35BF2203020C1E027A
:100A80000C6590126675F080120777753D6C753EA7
:100A900010753F8090106CE493FE7F00C3EE953B91
:100AA000EF953C50268E408F41901073E493FF8F5A
:100AB0001C751D00854082854183120F35E58285B6
:100AC00083F045F0700B7542018006853B40853C04
:100AD00041020E5390127975F080120777753D7EB2
:100AE000753E10753F80901081E493FE7F0090105A
:100AF00080E493FD7C002FFFEC3EFE8F408E41C3CF
:100B0000E540953BE541953C5022901073E493FFFE
:100B10008F1C751D00854082854183120F35E5824B
:100B20008583F045F0700B7542018006853B40855A
:100B30003C41020E5390129375F080120777AE3746
:100B40007F00C374039EE49F5003020BD7EE2E90E8
:100B50000B5373800680238040805D9012A975F04E
:100B600080120777753DA7753E10753F809010A7DE
:100B7000E493FF8F40754100806E9012B675F0804F
:100B8000120777753DAB753E10753F809010ABE452
:100B900093FF8F40754100804F9012CA75F080120C
:100BA0000777753D09753E11753F80901109E493F3
:100BB000FF8F4075410080309012DA75F080120787
:100BC00077753D3F753E11753F8090113FE493FF6F
:100BD0008F4075410080119012E975F080120777FF
:100BE000E4F540F541754201C3E540953BE541958B
:100BF0003C5022901073E493FF8F1C751D008540BC
:100C000082854183120F35E5828583F045F07005BA
:100C10007542018006853B40853C41020E5390128F
:100C2000F975F080120777753D55753E11753F8057
:100C3000754079754100C37479953BE4953C501F2C
:100C4000901073E493FF8F1C751D00900079120FB4
:100C500035E5828583F045F07005754201800375A6
:100C60004200020E5390130D75F0801207778538FD
:100C70008212086C90132075F0800207779013227F
:100C800075F08002077790133175F0800207779036
:100C9000133D75F08002077790134A75F0800207C4
:100CA0007790136C75F08002077790138675F0804B
:100CB0000207779013A175F080020777E535C4032A
:100CC0005407FF5307037E00BF0005BE00028015D6
:100CD000BF0106BE0003020D8BBF0206BE00030269
:100CE0000DB7020DC09013C275F080120777740122
:100CF000B5360280237403B5360280747405B536A8
:100D000002801E7407B53602805D7409B536028014
:100D100039740BB5366C80619013DF75F080020773
:100D2000779013EE75F08012077785378212086C82
:100D300090132075F08012077785378212070BE435
:100D4000F540F541754201020E5390140C75F08088
:100D5000120777AF378F448F8212071FE4F540F5F3
:100D600041754201020E5390141F75F080020777FF
:100D700090142F75F08002077790143C75F0800274
:100D8000077790134A75F08002077790144B75F03F
:100D900080120777740AB5361590146675F08012C4
:100DA0000777754001754100754201020E5390149A
:100DB0007075F08002077790148175F080020777D4
:100DC00090149D75F08002077775154575160075AE
:100DD000174075141075820012053412061B753306
:100DE0000875340090004575F0400208AB9014BFC0
:100DF00075F080120777758201120524020E539058
:100E000014CF75F0801207777582021205247515CC
:100E10005575160075174075140275820212053457
:100E200012061B7401B55505E556F4F5A022901481
:100E3000E175F0801207777582031205247543006F
:100E4000229014F275F08002077790150475F080F7
:100E5000020777901073E493FFFD7E00C3ED954089
:100E6000EE954150348F18853D19853E1A853F1BFC
:100E700075820112063F901073E493FFFD7E00AB74
:100E800040AC41EBC39DFBEC9EFC8B408C41EF25BD
:100E90003DF53DE4353EF53E22E54045416018858F
:100EA0004018853D19853E1A853F1B758201120643
:100EB0003FE4F540F541227401B5421575180085EF
:100EC0003D19853E1A853F1B75820112063F75420A
:020ED0000022FE
:10106C001201100100000010888803000001010229
:10107C000301090229000101008032090400000269
:10108C0003010100092110012101227900070581CA
:10109C000310000A0705010310000A040309045E8B
:1010AC000343006F006E0074006100630074002045
:1010BC000061007500740068006F00720020004829
:1010CC000065006E0067002000560069006100207A
:1010DC000065006D00610069006C0020003700376E
:1010EC000030003100370035003100370037004048
:1010FC0000710071002E0063006F006D0036034814
:10110C000065006E0067002700730020004B00652F
:10111C0000790062006F00610072006400200077AB
:10112C000069007400680020004D006F00750073AA
:10113C00006500160332003000320033002D003001
:10114C000038002D003000320005010906A1018590
:10115C0001050719E029E71500250195087501819E
:10116C000295017508810395067508150025FF0584
:10117C0007190029658100250195057501050819D8
:10118C000129059102950175039103C0050109021E
:10119C00A10185020901A100050919012903150006
:1011AC0025019503750181029501750581030501E2
:1011BC000930093109381581257F75089503810699
:1011CC00C0C075736220646973636F6E6E656374FF
:1011DC000A0075736220636F6E6E6563740A007526
:1011EC00736220636F7265206973722073757370FC
:1011FC00656E640A0075736220636F726520697393
:10120C00722072657365740A00757362206973725B
:10121C0020657030206F75740A005553422073742A
:10122C00616E6420696E707574207265717565737A
:10123C00743A200047657420636F6E666967757237
:10124C006174696F6E0A004765742064657363721C
:10125C006970746F72202D2D20006465766963654A
:10126C002064657363726970746F720A00636F6EC9
:10127C0066696775726174696F6E206465736372F9
:10128C006970746F720A00737472696E672064659A
:10129C007363726970746F72202D2D20006C616EF7
:1012AC0067756167652049440A006D616E756661FA
:1012BC00637475726520737472696E670A0070725C
:1012CC006F6475637420737472696E670A0073655A
:1012DC007269616C20737472696E670A00756E6B4B
:1012EC006E6F776E20737472696E670A0052657048
:1012FC006F72742064657363726970746F723A20D4
:10130C00006F746865722064657363726970746FC2
:10131C00723A20000A0047657420696E7465726623
:10132C006163650A00476574207374617475730A90
:10133C000053796E6368206672616D650A004572B0
:10134C00726F723A20756E646566696E656420739F
:10135C0074616E64657220726571756573740A00D0
:10136C0055534220636C61737320696E70757420E1
:10137C00726571756573743A0A005553422076652F
:10138C006E646F7220696E7075742072657175650C
:10139C0073743A0A004572726F723A20756E646506
:1013AC0066696E656420696E7075742072657175FE
:1013BC006573743A0A00555342207374616E646508
:1013CC0072206F75747075742072657175657374A5
:1013DC003A2000636C656172206665617475726594
:1013EC000A0073657420616464726573732C2074D5
:1013FC00686520616464726573732069733A2000B8
:10140C0073657420636F6E66696775726174696F5A
:10141C006E0A007365742064657363726970746F0F
:10142C00720A0073657420666561747572650A00D2
:10143C0073657420696E746572666163650A005524
:10144C00534220636C617373206F757470757420D4
:10145C00726571756573743A0A00736574206964FA
:10146C006C650A00756E6B6E6F776E2072657175A8
:10147C006573740A005553422076656E646F722052
:10148C006F757470757420726571756573743A0A32
:10149C00004572726F723A20756E646566696E658E
:1014AC0064206F75747075742072657175657374D2
:1014BC002E0A007573622069737220657030206982
:1014CC006E0A0075736220636F726520657031203F
:1014DC006F75740A0075736220636F726520657096
:1014EC003120696E0A0075736220636F7265206526
:1014FC007032206F75740A0075736220636F7265A9
:09150C002065703220696E0A00AE
:100ED2007A10E4FBFCE58225E0F582E58333F583B5
:100EE200EB33FBEC33FCEB951CF5F0EC951D400667
:090EF200FCABF0438201DADD22C1
:06005800E478FFF6D8FD7C
:100EFB00AC82AD83AE1DAF1EBE0004EF600C1F0FA6
:0F0F0B00E51C120F1AA3DEFADFF88C828D832209
:100036007900E94400601B7A00901515780175A0D7
:1000460000E493F2A308B8000205A0D9F4DAF27529
:02005600A0FF09
:100F1A0020F71130F6138883A88220F509F6A883F2
:100F2A007583002280FEF280F5F022E51C451D60E3
:100F3A00467A01E51C25E0F51CE51D334012F51D36
:100F4A00E582951CE583951D40030A80E6C3E51DED
:100F5A0013F51DE51C13F51CC3E582951CF5F0E598
:100F6A0083951D4005F58385F082C3E51D13F51DA4
:080F7A00E51C13F51CDAE1226D
:10005E007800E84400600A790175A000E4F309D83D
:10006E00FC7800E84400600C7900900001E4F0A3F5
:04007E00D8FCD9FAD7
:0D00290075815E12100CE582600302002656
:100F820020F71430F6148883A88220F507E6A88398
:100F920075830022E280F7E49322E022C2D5E58342
:100FA20030E70DD2D5E4C39582F582E49583F583CB
:100FB200E51D30E70BE4C3951CF51CE4951DF51DFA
:100FC200120F3530D50BE4C39582F582E49583F593
:100FD2008322C2D5E58330E70DD2D5E4C39582F5ED
:100FE20082E49583F583E51D30E70DB2D5E4C39520
:100FF2001CF51CE4951DF51D120ED230D50BE4C371
:0E1002009582F582E49583F5832275820022A3
:00000001FF
