:1D009000AE82AF83EE4F60147CE67D001CBCFF011DEC4D70F71EBEFF011F80E82247
:03008200750800FE
:2000AD007590FF78177600781676007815760078147600781A7600781876007819760012FA
:2000CD0002F9781B7601227F0074FFB59002805090000AC007120090D00774FFB5900280CF
:2000ED003FE59020E0027F01E59020E103430702E59020E203430704E59020E30343070863
:20010D00E59020E403430710E59020E503430720E59020E603430740E59020E703430780C4
:20012D008F822274FFB59002804590000A12009074FFB590028038AF907D007E008DF00596
:20014D00F0EF8002C313D5F0FB20E013E508FB3395E0FCEDB50306EEB5040280028D080D84
:13016D00BD00010EC3ED9408EE6480948040CE8508822242
:20018000AF82BF0800400490FFFF22E51360158F068EF005F07401800225E0D5F0FBF4FE50
:2001A00052A080108FF005F07401800225E0D5F0FBFF42A090000022AF82BF080040047549
:1B01C000820022E5A08FF005F08002C313D5F0FB30E004758200227582012228
:04000000020029329F
:03000B0002021AD4
:0100130032BA
:01001B0032B2
:030023000202B125
:05008500E4F509F50A95
:03008D0002002648
:030026000201DBF9
:2001DB001200AD12030E1202D4AE82AF839003D175F080C007C006120336D006D0078E82FA
:2001FB008F831203619003E775F0801203369003E975F080120336900BB812009080EFC0E2
:20021B00E0C0F0C007C001C000C0D075D000758CDC758A000509E4B50902050AC374C895E5
:20023B0009E4950A5007E4F509F50AB2A7781BE670028055E590F4FF7814A607781479150B
:20025B0086F0E7B5F002800C7816760078147915E6F780357816E6781604F67816B6010002
:20027B0040277816760178157917E6F7781AE6F4FF7817E65F781846F6781A7917E756781B
:1F029B001946F67817791AE6F7D0D0D000D001D007D0F0D0E032109805C299750B00327C
:2003D100726561642070646975736231322069642069733A20000A0068656C6C6F20776FFF
:0603F100726C64210A0099
:2002BA00AF82D2B5C2B68F80D2B67580FF22C2B5C2B7858082D2B7D2B7227582FD1202BADA
:1F02DA001202C8AF827E00C007C0061202C8AD82D006D0078D04E44FF582EC4EF5832226
:1502F900758CDC758A005389F0438901D2AFD2A9C28DD28C22B0
:03008A00750B00F3
:20030E00C2AF5389F0438920759850758DF4758BF4438780D2ACD28ED29CD2AF2285829986
:20032E00750B01E50B70FC22AD82AE83AFF08D828E838FF01203B1FC60188C82C007C0063D
:20034E00C00512032BD005D006D0070DBD00DF0E80DC22AE82AF83751200750C30750D783F
:20036E007D05ED240CF98E0353030F7C00EB24F7F582EC3403F583E493F7EFC4CEC4540F37
:20038E006ECE540FCE6ECEFF1DBD020050D490000C75F040020336AF82C00712032BD0071C
:0303AE008F822219
:1003F7003031323334353637383941424344454654
:06005800E478FFF6D8FD7C
:200036007900E94400601B7A00900407780175A000E493F2A308B8000205A0D9F4DAF27565
:02005600A0FF09
:20005E007800E84400600A790175A000E4F309D8FC7800E84400600C7900900001E4F0A3A0
:04007E00D8FCD9FAD7
:0D00290075811B1203CDE5826003020026E5
:1C03B10020F71430F6148883A88220F507E6A88375830022E280F7E49322E0225B
:0403CD007582002213
:00000001FF
