:1D006500AE82AF83EE4F60147CE67D001CBCFF011DEC4D70F71EBEFF011F80E82272
:03005F0075080021
:200082007F0074FFB59002805090000AC007120065D00774FFB59002803FE59020E0027F37
:2000A20001E59020E103430702E59020E203430704E59020E303430708E59020E40343071D
:2000C20010E59020E503430720E59020E603430740E59020E7034307808F822274FFB590EB
:2000E20002804590000A12006574FFB590028038AF907D007E008DF005F0EF8002C313D5EC
:20010200F0FB20E013E508FB3395E0FCEDB50306EEB5040280028D080DBD00010EC3ED94CB
:0C01220008EE6480948040CE85088222A4
:20012E00AF82BF0800400490FFFF22E50960158F068EF005F07401800225E0D5F0FBF4FEAC
:20014E0052A080108FF005F07401800225E0D5F0FBFF42A090000022AF82BF08004004759B
:1B016E00820022E5A08FF005F08002C313D5F0FB30E00475820022758201227A
:03000000020006F5
:0300620002000396
:030003000201896E
:200189007E007F008E82750901C007C00612012E9001F4120065D006D0070EBE00010FC3B4
:2001A900EE9408EF6480948040DA7E007F008E82750900C007C00612012E9001F412006556
:2001C900D006D0070EBE00010FC3EE9408EF6480948040DA120082AF827D007E008DF005FD
:2001E900F07B017C008006EB2BFBEC33FCD5F0F7EFF93395E0FAE95203EA5204EB4C6016EB
:200209008D82750901C007C006C00512012ED005D006D00780148D82750900C007C006C0C4
:1C0229000512012ED005D006D0070DBD00010EC3ED9408EE6480948040A38098EB
:040245009000002203
:06003500E478FFF6D8FD9F
:200013007900E94400601B7A0090024D780175A000E493F2A308B8000205A0D9F4DAF27544
:02003300A0FF2C
:20003B007800E84400600A790175A000E4F309D8FC7800E84400600C7900900001E4F0A3C3
:04005B00D8FCD9FAFA
:0D000600758109120249E5826003020003C2
:040249007582002298
:00000001FF
