:1D009000AE82AF83EE4F60147CE67D001CBCFF011DEC4D70F71EBEFF011F80E82247
:1200AD00AF82C2AFBF0104D2888002C288D2A8D2AF2298
:03008200750800FE
:2000BF007590FF78597600785876007857760078567600785C7600785A7600785B7600121A
:2000DF0006DB785D7601227F0074FFB59002805090000AC007120090D00774FFB590028095
:2000FF003FE59020E0027F01E59020E103430702E59020E203430704E59020E30343070851
:20011F00E59020E403430710E59020E503430720E59020E603430740E59020E703430780B2
:20013F008F822274FFB59002804590000A12009074FFB590028038AF907D007E008DF00584
:20015F00F0EF8002C313D5F0FB20E013E508FB3395E0FCEDB50306EEB5040280028D080D72
:13017F00BD00010EC3ED9408EE6480948040CE8508822230
:20019200AF82BF0800400490FFFF22E51B60158F068EF005F07401800225E0D5F0FBF4FE36
:2001B20052A080108FF005F07401800225E0D5F0FBFF42A090000022AF82BF080040047537
:1B01D200820022E5A08FF005F08002C313D5F0FB30E004758200227582012216
:0600000002002902033F8B
:03000B000203DA13
:0100130032BA
:01001B0032B2
:0300230002046F65
:05008500E4F511F51285
:03008D0002002648
:030026000201EDE7
:2001ED001200BF1206F0120492AE82AF83900FAC75F080C007C006120718D006D0078E8264
:20020D008F83120743900FC275F0801207181208C11208E275440020B25F7582F4120478B2
:20022D00120486E582FF30E707C0071208FDD007EF30E607C007120906D007EF30E007C04B
:20024D0007120913D007EF30E107C007120D8ED007EF30E207C007120DA0D007EF30E307C5
:20026D00C007120DCAD007EF30E407C007120DDDD007EF30E503120DE6E544609AE543707F
:20028D0096785DF6785BE67005785AE660031202A5785D7601020224750900750A00750BFD
:2002AD0000750C00750D00750E00750F007510007F027859E630E00674014509F5097859C2
:2002CD00E630E10674024509F5097859E630E20674044509F5097859E630E305750B597F98
:2002ED00037859E630E407EF2409F8765A0F7859E630E507EF2409F8765B0F7859E630E695
:20030D0007EF2409F876390F7859E630E706EF2409F87653751809751900751A40751708BF
:20032D007582031205E0754301785B7600785A760022C020C0E0C0F0C082C083C007C00611
:20034D00C005C004C003C002C001C000C0D075D0007582F4120478120486E582FF30E70793
:20036D00C0071208FDD007EF30E607C007120906D007EF30E007C007120913D007EF30E11E
:20038D0007C007120D8ED007EF30E207C007120DA0D007EF30E307C007120DCAD007EF30EA
:2003AD00E407C007120DDDD007EF30E503120DE6D0D0D000D001D002D003D004D005D0063A
:2003CD00D007D083D082D0F0D0E0D02032C0E0C0F0C007C001C000C0D075D000758CDC7543
:2003ED008A000511E4B511020512C374C89511E495125005E4F511F512785DE67002805515
:20040D00E590F4FF7856A6077856795786F0E7B5F002800C7858760078567957E6F7803548
:20042D007858E6785804F67858B6010040277858760178577959E6F7785CE6F4FF7859E618
:20044D005F785A46F6785C7959E756785B46F67859795CE6F7D0D0D000D001D007D0F0D005
:0B046D00E032109805C29975210032A2
:180FAC00726561642070646975736231322069642069733A20000A003A
:20047800AF82D2B5C2B68F80D2B67580FF22C2B5C2B7858082D2B7D2B7227582FD1204785A
:20049800120486AF827E00C007C006120486AD82D006D0078D04E44FF582EC4EF58322AF36
:2004B80082C2B5C2B68F80D2B67580FF22AF8274402FF582120478020486020478AF82C0F2
:2004D800071204D27582F0120478120486120486AE82D007C3E5139E5002AE13900FC4751D
:2004F800F080C007C006120718D006D0077D00751B028D1C8F828D83C006120F7012078A36
:20051800900FD375F080120718D0068E057F008D828F83C00612078A900FDC75F080120750
:2005380018D0067F00C3EF9E5065C2B7EF2514FBE43515FCAD168B828C838DF0E580120E8A
:20055800B6D2B78B828C838DF0120F1EF582C007C00612080DD006D0078F047D008C828DE9
:2005780083A3751B108D1CC007C006120F3AE5828583F0D006D00745F07011900FE475F062
:2005980080C007C006120718D006D0070F8096EE540F600D900FE475F080C006120718D046
:2005B800068E82227582F20204787582011204D27582F11204787582001204D27582F10265
:2005D80004787582FA020478AF82C0071204D27582F01204787582001204B78517821204CB
:2005F800B7900FE675F080120718D0077E00751B028E1C8F828E83120F7012078A900FD338
:2006180075F080120718AE177F008E828F8312078A900FDC75F0801207187F00C3EF951735
:200638005059C2B6EF2518FCE43519FDAE1A8C828D838EF0120F1EF580D2B68C828D838EDE
:20065800F0120F1EF582C00712080DD0078F057E008D828E83A3751B108E1CC007120F3AD6
:20067800E5828583F0D00745F0700D900FE475F080C007120718D0070F80A1E517540F6054
:2006980009900FE475F0801207187580FF1205DA85178222AF827582D0C007120478D00757
:2006B80074804FF5820204B7AF827582D8C007120478D007EF60067582010204B77582007E
:0306D8000204B762
:200FC4007265616420656E64706F696E7420002062756666657220002062797465730A00C5
:120FE4000A00777269746520656E64706F696E74200025
:1506DB00758CDC758A005389F0438901D2AFD2A9C28DD28C22CA
:03008A00752100DD
:2006F000C2AF5389F0438920759850758DF4758BF4438780D2ACD28ED29CD2AF22858299A1
:20071000752101E52170FC22AD82AE83AFF08D828E838FF0120F1EFC60188C82C007C006B2
:20073000C00512070DD005D006D0070DBD00DF0E80DC22AE82AF8375280075223075237831
:200750007D05ED2422F98E0353030F7C00EB24F6F582EC340FF583E493F7EFC4CEC4540F30
:200770006ECE540FCE6ECEFF1DC3ED6480948250D190002275F040020718AE82AF83752E5C
:20079000007D09ED2429F9751B0A751C008E828F83C007C006C005C001120ED1AB82D00141
:2007B000D005D006D00774302BF7751B0A751C008E828F83C005120E6EAE82AF83D0051DED
:2007D000ED30E7BF7F00EF2429F98706BE30090FC3EF6480948940EEC3EF6480948A50100A
:2007F000EF2429F98782C00712070DD0070F80E822AF827521018F99E52170FC22AF827524
:200810008230C007120801758278120801D007EFC4540F900FF693F582C007120801D00765
:2008300053070F7E00EF24F6F582EE340FF583E493F582120801758220020801AD82AE830D
:20085000AFF07B007C00C3EB9533EC95345059EB2DF8EC3EF98F02888289838AF0120F1E8B
:20087000F582C007C006C005C004C00312080DD003D004D005D006D007EB4C6024EB540FBF
:200890006002801D90100675F080C007C006C005C004C003120718D003D004D005D006D092
:1108B000070BBB00A10C809E90100675F080020718F3
:120FF600303132333435363738394142434445460A003D
:2008C10090111C75F0801207187582F31204787582061204B77582471204B79003E802007A
:2008E1009090112C75F0801207187582F31204787582161204B77582470204B790113975E8
:20090100F08002071890114F75F0801207187543002290116375F080120718751B00751C2A
:2009210010751D0090004575F040120E977582001204C5E58220E503020D6A7514457515D1
:20094100007516407513107582001204D51205C21205BC854535854636AF487E00AC477DC0
:2009610000EE4CF537EF4DF538AF4A7E00AC497D00EE4CF539EF4DF53AAF4C7E00AC4B7DFE
:2009810000EE4CF53BEF4DF53CAE355306807F00BE8005BF00028003020C5DE535C403541D
:2009A10007FF5307037E00BF0005BE00028015BF0106BE0003020C42BF0206BE0003020CCF
:2009C1004B020C5490117475F080120718E4B53603020C277406B5360280237408B53602C4
:2009E1008013740AB53603020C1E740CB53603020C30020C3990118E75F080020718901102
:200A0100A175F080120718AF38BF01028014BF02028061BF0303020AD6BF2203020BBF02E4
:200A21000C069011B475F080120718753D08753E10753F80901008E493FE7F00C3EE953B6A
:200A4100EF953C50268E408F4190100FE493FF8F1B751C00854082854183120ED1E58285F4
:200A610083F045F0700B7542018006853B40853C41020DEF9011C775F080120718753D1ACA
:200A8100753E10753F8090101DE493FE7F0090101CE493FD7C002FFFEC3EFE8F408E41C34A
:200AA100E540953BE541953C502290100FE493FF8F1B751C00854082854183120ED1E5828F
:200AC1008583F045F0700B7542018006853B40853C41020DEF9011E175F080120718AE37B2
:200AE1007F00C374039EE49F5003020B78EE2E900AF473800680238040805D9011F775F063
:200B010080120718753D43753E10753F80901043E493FF8F40754100806E90120475F080E0
:200B2100120718753D47753E10753F80901047E493FF8F40754100804F90121875F0801231
:200B41000718753DA5753E10753F809010A5E493FF8F40754100803090122875F08012076F
:200B610018753DC5753E10753F809010C5E493FF8F40754100801190123775F0801207180E
:200B8100E4F540F541754201C3E540953BE541953C502290100FE493FF8F1B751C00854007
:200BA10082854183120ED1E5828583F045F070057542018006853B40853C41020DEF90128F
:200BC1004775F080120718753DDB753E10753F80754041754100C37441953BE4953C501F1B
:200BE10090100FE493FF8F1B751C00900041120ED1E5828583F045F0700575420180037519
:200C01004200020DEF90125B75F08012071885388212080D90126E75F080020718901270F2
:200C210075F08002071890127F75F08002071890128B75F08002071890129875F08002072B
:200C4100189012BA75F0800207189012D475F0800207189012EF75F080020718E535C40325
:200C61005407FF5307037E00BF0005BE00028015BF0106BE0003020D2CBF0206BE000302D9
:200C81000D58020D6190131075F0801207187401B5360280237403B5360280747405B536F4
:200CA10002801E7407B53602805D7409B536028039740BB5366C806190132D75F0800207B6
:200CC1001890133C75F08012071885378212080D90126E75F0801207188537821206ACE495
:200CE100F540F541754201020DEF90135A75F080120718AF378F448F821206C0E4F540F50F
:200D010041754201020DEF90136D75F08002071890137D75F08002071890138A75F080028B
:200D2100071890129875F08002071890139975F080120718740AB536159013B475F0801235
:200D41000718754001754100754201020DEF9013BE75F0800207189013CF75F08002071872
:200D61009013EB75F0800207187514457515007516407513107582001204D51205BC7533C6
:200D81000875340090004575F04002084C90140D75F0801207187582011204C5020DEF90A9
:200DA100141D75F0801207187582021204C57514557515007516407513017582021204D577
:200DC1001205BCE555F4F5A02290142F75F0801207187582031204C5754300229014407569
:200DE100F08002071890145275F08002071890100FE493FFFD7E00C3ED9540EE95415034F8
:200E01008F17853D18853E19853F1A7582011205E090100FE493FFFD7E00AB40AC41EBC382
:200E21009DFBEC9EFC8B408C41EF253DF53DE4353EF53E22E54045416018854017853D18F3
:200E4100853E19853F1A7582011205E0E4F540F541227401B54215751700853D18853E19B4
:0D0E6100853F1A7582011205E075420022DE
:20100800120110010000001088880200000101020301090229000101008032090400000283
:20102800030101000921100121012241000705810310000A0705010310000A040309045E9D
:201048000343006F006E007400610063007400200061007500740068006F0072002000489E
:201068000065006E0067002000560069006100200065006D00610069006C00200037003738
:201088000030003100370035003100370037004000710071002E0063006F006D00200348E2
:2010A8000065006E0067002700730020004B006500790062006F00610072006400160332B8
:2010C800003000320033002D00300037002D003200330005010906A101050719E029E7156C
:2010E80000250195087501810295017508810395067508150025FF050719002965810025EB
:2011080001950575010508190129059102950175039103C075736220646973636F6E6E65AF
:2011280063740A0075736220636F6E6E6563740A0075736220636F726520697372207375DF
:201148007370656E640A0075736220636F7265206973722072657365740A007573622069C2
:20116800737220657030206F75740A00555342207374616E6420696E70757420726571758A
:201188006573743A200047657420636F6E66696775726174696F6E0A004765742064657363
:2011A80063726970746F72202D2D20006465766963652064657363726970746F720A00634E
:2011C8006F6E66696775726174696F6E2064657363726970746F720A00737472696E6720D2
:2011E80064657363726970746F72202D2D20006C616E67756167652049440A006D616E7562
:201208006661637475726520737472696E670A0070726F6475637420737472696E670A0059
:2012280073657269616C20737472696E670A00756E6B6E6F776E20737472696E670A005242
:2012480065706F72742064657363726970746F723A20006F74686572206465736372697077
:20126800746F723A20000A0047657420696E746572666163650A0047657420737461747541
:20128800730A0053796E6368206672616D650A004572726F723A20756E646566696E656479
:2012A800207374616E64657220726571756573740A0055534220636C61737320696E7075E6
:2012C8007420726571756573743A0A005553422076656E646F7220696E70757420726571D5
:2012E800756573743A0A004572726F723A20756E646566696E656420696E70757420726584
:2013080071756573743A0A00555342207374616E646572206F757470757420726571756541
:2013280073743A2000636C65617220666561747572650A0073657420616464726573732CC9
:201348002074686520616464726573732069733A200073657420636F6E666967757261742A
:20136800696F6E0A007365742064657363726970746F720A00736574206665617475726508
:201388000A0073657420696E746572666163650A0055534220636C617373206F7574707597
:2013A8007420726571756573743A0A007365742069646C650A00756E6B6E6F776E20726529
:2013C80071756573740A005553422076656E646F72206F7574707574207265717565737437
:2013E8003A0A004572726F723A20756E646566696E6564206F757470757420726571756578
:2014080073742E0A00757362206973722065703020696E0A0075736220636F7265206570BF
:2014280031206F75740A0075736220636F72652065703120696E0A0075736220636F7265A4
:1B14480020657032206F75740A0075736220636F72652065703220696E0A00A5
:200E6E007A10E4FBFCE58225E0F582E58333F583EB33FBEC33FCEB951BF5F0EC951C400672
:090E8E00FCABF0438201DADD2225
:06005800E478FFF6D8FD7C
:1F0E9700AC82AD83AE1CAF1DBE0004EF600C1F0FE51B120EB6A3DEFADFF88C828D832295
:200036007900E94400601B7A00901463780175A000E493F2A308B8000205A0D9F4DAF275F9
:02005600A0FF09
:1B0EB60020F71130F6138883A88220F509F6A8837583002280FEF280F5F0223B
:200ED100E51B451C60467A01E51B25E0F51BE51C334012F51CE582951BE583951C40030A56
:200EF10080E6C3E51C13F51CE51B13F51BC3E582951BF5F0E583951C4005F58385F082C321
:0D0F1100E51C13F51CE51B13F51BDAE122AE
:20005E007800E84400600A790175A000E4F309D8FC7800E84400600C7900900001E4F0A3A0
:04007E00D8FCD9FAD7
:0D00290075815D120FA8E5826003020026BC
:1C0F1E0020F71430F6148883A88220F507E6A88375830022E280F7E49322E022E2
:200F3A00C2D5E58330E70DD2D5E4C39582F582E49583F583E51C30E70BE4C3951BF51BE4B6
:160F5A00951CF51C120ED130D50BE4C39582F582E49583F58322F3
:200F7000C2D5E58330E70DD2D5E4C39582F582E49583F583E51C30E70DB2D5E4C3951BF5F6
:180F90001BE4951CF51C120E6E30D50BE4C39582F582E49583F583221F
:040FA800758200222C
:00000001FF
