:1D009000AE82AF83EE4F60147CE67D001CBCFF011DEC4D70F71EBEFF011F80E82247
:1200AD00AF82C2AFBF0104D2888002C288D2A8D2AF2298
:03008200750800FE
:2000BF007590FF78587600785776007856760078557600785B760078597600785A76001221
:2000DF0006E3785C7601227F0074FFB59002805090000AC007120090D00774FFB59002808E
:2000FF003FE59020E0027F01E59020E103430702E59020E203430704E59020E30343070851
:20011F00E59020E403430710E59020E503430720E59020E603430740E59020E703430780B2
:20013F008F822274FFB59002804590000A12009074FFB590028038AF907D007E008DF00584
:20015F00F0EF8002C313D5F0FB20E013E508FB3395E0FCEDB50306EEB5040280028D080D72
:13017F00BD00010EC3ED9408EE6480948040CE8508822230
:20019200AF82BF0800400490FFFF22E51760158F068EF005F07401800225E0D5F0FBF4FE3A
:2001B20052A080108FF005F07401800225E0D5F0FBFF42A090000022AF82BF080040047537
:1B01D200820022E5A08FF005F08002C313D5F0FB30E004758200227582012216
:0600000002002902034783
:03000B000203E20B
:0100130032BA
:01001B0032B2
:030023000204775D
:05008500E4F50DF50E8D
:03008D0002002648
:030026000201EDE7
:2001ED001200BF1206F812049AAE82AF83900F9375F080C007C006120720D006D0078E8265
:20020D008F8312074B900FA975F0801207201208C91208EA75440020B25F7582F4120480A3
:20022D0012048EE582FF30E707C007120905D007EF30E607C00712090ED007EF30E007C032
:20024D000712091BD007EF30E107C007120D96D007EF30E207C007120DA8D007EF30E307AD
:20026D00C007120DB1D007EF30E407C007120DC4D007EF30E503120DCDE544609A7858E6AC
:20028D00F4F5A0E5437090785CF6785AE6700A7859E670057858E660031202B0785C760150
:2002AD00020224750900750A00750B00750C00785AE654C0F67859E654C0F67858E6543F3F
:2002CD006002800A785AE670057859E660637858E630E003750AFF7858E630E103750A01ED
:2002ED007858E630E203750BFF7858E630E303750B017858E630E403750CFF7858E630E542
:20030D0003750C017858E630E60674014509F5097858E630E70674024509F509751409751C
:20032D0015007516407513047582031205E8754301785A76007859760022C020C0E0C0F0B1
:20034D00C082C083C007C006C005C004C003C002C001C000C0D075D0007582F41204801287
:20036D00048EE582FF30E707C007120905D007EF30E607C00712090ED007EF30E007C007FC
:20038D0012091BD007EF30E107C007120D96D007EF30E207C007120DA8D007EF30E307C0B3
:2003AD0007120DB1D007EF30E407C007120DC4D007EF30E503120DCDD0D0D000D001D002F1
:2003CD00D003D004D005D006D007D083D082D0F0D0E0D02032C0E0C0F0C007C001C000C058
:2003ED00D075D000758CDC758A00050DE4B50D02050EC374C8950DE4950E5005E4F50DF5DA
:20040D000E785CE670028055E590F4FF7855A6077855795686F0E7B5F002800C785776006D
:20042D0078557956E6F780357857E6785704F67857B6010040277857760178567958E6F754
:20044D00785BE6F4FF7858E65F785946F6785B7958E756785A46F67858795BE6F7D0D0D0E1
:13046D0000D001D007D0F0D0E032109805C2997521003262
:180F9300726561642070646975736231322069642069733A20000A0053
:20048000AF82D2B5C2B68F80D2B67580FF22C2B5C2B7858082D2B7D2B7227582FD1204804A
:2004A00012048EAF827E00C007C00612048EAD82D006D0078D04E44FF582EC4EF58322AF1E
:2004C00082C2B5C2B68F80D2B67580FF22AF8274402FF58212048002048E020480AF82C0D2
:2004E000071204DA7582F012048012048E12048EAE82D007C3E50F9E5002AE0F900FAB7516
:20050000F080C007C006120720D006D0077D007517028D188F828D83C006120F571207923E
:20052000900FBA75F080120720D0068E057F008D828F83C006120792900FC375F08012076A
:2005400020D0067F00C3EF9E5065C2B7EF2510FBE43511FCAD128B828C838DF0E580120E86
:200560009DD2B78B828C838DF0120F05F582C007C006120815D006D0078F047D008C828D0B
:2005800083A37517108D18C007C006120F21E5828583F0D006D00745F07011900FCB75F094
:2005A00080C007C006120720D006D0070F8096EE540F600D900FCB75F080C006120720D047
:2005C000068E82227582F20204807582011204DA7582F11204807582001204DA7582F1023D
:2005E00004807582FA020480AF82C0071204DA7582F01204807582001204BF85138212049F
:20060000BF900FCD75F080120720D0077E007517028E188F828E83120F57120792900FBA6A
:2006200075F080120720AE137F008E828F83120792900FC375F0801207207F00C3EF951336
:200640005059C2B6EF2514FCE43515FDAE168C828D838EF0120F05F580D2B68C828D838EFB
:20066000F0120F05F582C007120815D0078F057E008D828E83A37517108E18C007120F2100
:20068000E5828583F0D00745F0700D900FCB75F080C007120720D0070F80A1E513540F6061
:2006A00009900FCB75F0801207207580FF1205E285138222AF827582D0C007120480D00754
:2006C00074804FF5820204BFAF827582D8C007120480D007EF60067582010204BF7582005E
:0306E0000204BF52
:200FAB007265616420656E64706F696E7420002062756666657220002062797465730A00DE
:120FCB000A00777269746520656E64706F696E7420003E
:1506E300758CDC758A005389F0438901D2AFD2A9C28DD28C22C2
:03008A00752100DD
:2006F800C2AF5389F0438920759850758DF4758BF4438780D2ACD28ED29CD2AF2285829999
:20071800752101E52170FC22AD82AE83AFF08D828E838FF0120F05FC60188C82C007C006C3
:20073800C005120715D005D006D0070DBD00DF0E80DC22AE82AF8375280075223075237821
:200758007D05ED2422F98E0353030F7C00EB24DDF582EC340FF583E493F7EFC4CEC4540F41
:200778006ECE540FCE6ECEFF1DC3ED6480948250D190002275F040020720AE82AF83752E4C
:20079800007D09ED2429F975170A7518008E828F83C007C006C005C001120EB8AB82D0015A
:2007B800D005D006D00774302BF775170A7518008E828F83C005120E55AE82AF83D0051D06
:2007D800ED30E7BF7F00EF2429F98706BE30090FC3EF6480948940EEC3EF6480948A501002
:2007F800EF2429F98782C007120715D0070F80E822AF827521018F99E52170FC22AF827514
:200818008230C007120809758278120809D007EFC4540F900FDD93F582C007120809D0075E
:2008380053070F7E00EF24DDF582EE340FF583E493F582120809758220020809AD82AE830E
:20085800AFF07B007C00C3EB9533EC95345059EB2DF8EC3EF98F02888289838AF0120F059C
:20087800F582C007C006C005C004C003120815D003D004D005D006D007EB4C6024EB540FAF
:200898006002801D900FED75F080C007C006C005C004C003120720D003D004D005D006D09C
:1108B800070BBB00A10C809E900FED75F080020720FD
:120FDD00303132333435363738394142434445460A0056
:2008C9009010E975F0801207207582F31204807582061204BF7582471204BF9003E8020086
:2008E900909010F975F0801207207582F31204807582161204BF7582470204BF9011067527
:20090900F08002072090111C75F0801207207543002290113075F080120720751700751878
:200929001075190090004575F040120E7E7582001204CDE58220E503020D727510457511DE
:2009490000751240750F107582001204DD1205CA1205C4854535854636AF487E00AC477DA8
:2009690000EE4CF537EF4DF538AF4A7E00AC497D00EE4CF539EF4DF53AAF4C7E00AC4B7DF6
:2009890000EE4CF53BEF4DF53CAE355306807F00BE8005BF00028003020C65E535C403540D
:2009A90007FF5307037E00BF0005BE00028015BF0106BE0003020C4ABF0206BE0003020CBF
:2009C90053020C5C90114175F080120720E4B53603020C2F7406B5360280237408B53602CF
:2009E9008013740AB53603020C26740CB53603020C38020C4190115B75F08002072090110D
:200A09006E75F080120720AF38BF01028014BF02028061BF0303020ADEBF2203020BC702F7
:200A29000C0E90118175F080120720753DEF753E0F753F80900FEFE493FE7F00C3EE953BB9
:200A4900EF953C50268E408F41900FF6E493FF8F17751800854082854183120EB8E5828527
:200A690083F045F0700B7542018006853B40853C41020DD690119475F080120720753D011F
:200A8900753E10753F80901004E493FE7F00901003E493FD7C002FFFEC3EFE8F408E41C374
:200AA900E540953BE541953C5022900FF6E493FF8F17751800854082854183120EB8E582C2
:200AC9008583F045F0700B7542018006853B40853C41020DD69011AE75F080120720AE37EE
:200AE9007F00C374039EE49F5003020B80EE2E900AFC73800680238040805D9011C475F07E
:200B090080120720753D23753E10753F80901023E493FF8F40754100806E9011D175F08044
:200B2900120720753D27753E10753F80901027E493FF8F40754100804F9011E575F0801295
:200B49000720753D85753E10753F80901085E493FF8F4075410080309011F575F0801207D3
:200B690020753D9F753E10753F8090109FE493FF8F40754100801190120475F08012072075
:200B8900E4F540F541754201C3E540953BE541953C5022900FF6E493FF8F17751800854021
:200BA90082854183120EB8E5828583F045F070057542018006853B40853C41020DD69012B9
:200BC9001475F080120720753DB5753E10753F80754034754100C37434953BE4953C501F7E
:200BE900900FF6E493FF8F17751800900034120EB8E5828583F045F0700575420180037559
:200C09004200020DD690122875F08012072085388212081590123B75F08002072090123D84
:200C290075F08002072090124C75F08002072090125875F08002072090126575F0800207A4
:200C49002090128775F0800207209012A175F0800207209012BC75F080020720E535C40396
:200C69005407FF5307037E00BF0005BE00028015BF0106BE0003020D34BF0206BE000302C9
:200C89000D60020D699012DD75F0801207207401B5360280237403B5360280747405B53608
:200CA90002801E7407B53602805D7409B536028039740BB5366C80619012FA75F0800207E2
:200CC9002090130975F08012072085378212081590123B75F0801207208537821206B4E4CB
:200CE900F540F541754201020DD690132775F080120720AF378F448F821206C8E4F540F543
:200D090041754201020DD690133A75F08002072090134A75F08002072090135775F0800225
:200D2900072090126575F08002072090136675F080120720740AB5361590138175F08012AE
:200D49000720754001754100754201020DD690138B75F08002072090139C75F080020720D1
:200D69009013B875F080020720751045751100751240750F107582001204DD1205C47533E9
:200D89000875340090004575F0400208549013DA75F0801207207582011204CD020DD690D6
:200DA90013EA75F0800207209013FC75F0801207207582031204CD7543002290140D75F095
:200DC9008002072090141F75F080020720900FF6E493FFFD7E00C3ED9540EE954150348FAE
:200DE90013853D14853E15853F167582011205E8900FF6E493FFFD7E00AB40AC41EBC39DAF
:200E0900FBEC9EFC8B408C41EF253DF53DE4353EF53E22E54045416018854013853D14852B
:200E29003E15853F167582011205E8E4F540F541227401B54215751300853D14853E1585D8
:0C0E49003F167582011205E87542002278
:200FEF001201100100000010888801000001010203010902220001010080320904000001A6
:20100F00030102000921100121012234000705810310000A040309045E0343006F006E00C9
:20102F007400610063007400200061007500740068006F0072002000480065006E006700A0
:20104F002000560069006100200065006D00610069006C00200037003700300031003700F3
:20106F0035003100370037004000710071002E0063006F006D001A03480065006E0067005F
:20108F002700730020004D006F00750073006500160332003000320033002D00300037000A
:2010AF002D003100380005010902A1010901A100050919012903150025019503750181020D
:2010CF0095017505810305010930093109381581257F750895038106C0C075736220646926
:2010EF0073636F6E6E6563740A0075736220636F6E6E6563740A0075736220636F726520E9
:20110F006973722073757370656E640A0075736220636F7265206973722072657365740A78
:20112F00007573622069737220657030206F75740A00555342207374616E6420696E707541
:20114F007420726571756573743A200047657420636F6E66696775726174696F6E0A004780
:20116F0065742064657363726970746F72202D2D2000646576696365206465736372697014
:20118F00746F720A00636F6E66696775726174696F6E2064657363726970746F720A00738D
:2011AF007472696E672064657363726970746F72202D2D20006C616E677561676520494412
:2011CF000A006D616E756661637475726520737472696E670A0070726F6475637420737492
:2011EF0072696E670A0073657269616C20737472696E670A00756E6B6E6F776E207374725C
:20120F00696E670A005265706F72742064657363726970746F723A20006F7468657220649C
:20122F00657363726970746F723A20000A0047657420696E746572666163650A0047657445
:20124F00207374617475730A0053796E6368206672616D650A004572726F723A20756E64CC
:20126F006566696E6564207374616E64657220726571756573740A0055534220636C617303
:20128F007320696E70757420726571756573743A0A005553422076656E646F7220696E7010
:2012AF00757420726571756573743A0A004572726F723A20756E646566696E656420696EBC
:2012CF0070757420726571756573743A0A00555342207374616E646572206F75747075746D
:2012EF0020726571756573743A2000636C65617220666561747572650A007365742061640E
:20130F0064726573732C2074686520616464726573732069733A200073657420636F6E66A2
:20132F00696775726174696F6E0A007365742064657363726970746F720A0073657420663B
:20134F006561747572650A0073657420696E746572666163650A0055534220636C617373A7
:20136F00206F757470757420726571756573743A0A007365742069646C650A00756E6B6E50
:20138F006F776E20726571756573740A005553422076656E646F72206F75747075742072BC
:2013AF006571756573743A0A004572726F723A20756E646566696E6564206F75747075745C
:2013CF0020726571756573742E0A00757362206973722065703020696E0A007573622063F2
:2013EF006F726520657031206F75740A0075736220636F72652065703120696E0A007573CE
:20140F006220636F726520657032206F75740A0075736220636F72652065703220696E0AAE
:01142F0000BC
:200E55007A10E4FBFCE58225E0F582E58333F583EB33FBEC33FCEB9517F5F0EC9518400693
:090E7500FCABF0438201DADD223E
:06005800E478FFF6D8FD7C
:1F0E7E00AC82AD83AE18AF19BE0004EF600C1F0FE517120E9DA3DEFADFF88C828D8322D3
:200036007900E94400601B7A00901430780175A000E493F2A308B8000205A0D9F4DAF2752C
:02005600A0FF09
:1B0E9D0020F71130F6138883A88220F509F6A8837583002280FEF280F5F02254
:200EB800E517451860467A01E51725E0F517E518334012F518E5829517E583951840030A8F
:200ED80080E6C3E51813F518E51713F517C3E5829517F5F0E58395184005F58385F082C352
:0D0EF800E51813F518E51713F517DAE122D8
:20005E007800E84400600A790175A000E4F309D8FC7800E84400600C7900900001E4F0A3A0
:04007E00D8FCD9FAD7
:0D00290075815C120F8FE5826003020026D6
:1C0F050020F71430F6148883A88220F507E6A88375830022E280F7E49322E022FB
:200F2100C2D5E58330E70DD2D5E4C39582F582E49583F583E51830E70BE4C39517F517E4DB
:160F41009518F518120EB830D50BE4C39582F582E49583F583222D
:200F5700C2D5E58330E70DD2D5E4C39582F582E49583F583E51830E70DB2D5E4C39517F517
:180F770017E49518F518120E5530D50BE4C39582F582E49583F583225D
:040F8F007582002245
:00000001FF
